{
  "contractName": "Securex",
  "abi": [
    {
      "inputs": [],
      "payable": false,
      "stateMutability": "nonpayable",
      "type": "constructor"
    },
    {
      "constant": true,
      "inputs": [
        {
          "internalType": "uint256",
          "name": "",
          "type": "uint256"
        }
      ],
      "name": "cases",
      "outputs": [
        {
          "internalType": "string",
          "name": "courtId",
          "type": "string"
        },
        {
          "internalType": "uint256",
          "name": "caseId",
          "type": "uint256"
        },
        {
          "internalType": "string",
          "name": "caseDescription",
          "type": "string"
        },
        {
          "internalType": "uint256",
          "name": "totalEvidences",
          "type": "uint256"
        },
        {
          "internalType": "string",
          "name": "startDateTime",
          "type": "string"
        },
        {
          "internalType": "bool",
          "name": "initialised",
          "type": "bool"
        }
      ],
      "payable": false,
      "stateMutability": "view",
      "type": "function"
    },
    {
      "constant": true,
      "inputs": [],
      "name": "name",
      "outputs": [
        {
          "internalType": "string",
          "name": "",
          "type": "string"
        }
      ],
      "payable": false,
      "stateMutability": "view",
      "type": "function"
    },
    {
      "constant": true,
      "inputs": [],
      "name": "totalCases",
      "outputs": [
        {
          "internalType": "uint256",
          "name": "",
          "type": "uint256"
        }
      ],
      "payable": false,
      "stateMutability": "view",
      "type": "function"
    },
    {
      "constant": false,
      "inputs": [
        {
          "internalType": "string",
          "name": "_courtId",
          "type": "string"
        },
        {
          "internalType": "string",
          "name": "_caseDescription",
          "type": "string"
        },
        {
          "internalType": "string",
          "name": "_startDateTime",
          "type": "string"
        }
      ],
      "name": "registerCase",
      "outputs": [],
      "payable": false,
      "stateMutability": "nonpayable",
      "type": "function"
    },
    {
      "constant": false,
      "inputs": [
        {
          "internalType": "uint256",
          "name": "_caseId",
          "type": "uint256"
        },
        {
          "internalType": "string",
          "name": "_description",
          "type": "string"
        },
        {
          "internalType": "string",
          "name": "_fileHash",
          "type": "string"
        },
        {
          "internalType": "string",
          "name": "_createdDateTime",
          "type": "string"
        }
      ],
      "name": "registerEvidence",
      "outputs": [],
      "payable": false,
      "stateMutability": "nonpayable",
      "type": "function"
    },
    {
      "constant": true,
      "inputs": [
        {
          "internalType": "uint256",
          "name": "caseId",
          "type": "uint256"
        }
      ],
      "name": "getCaseById",
      "outputs": [
        {
          "internalType": "string",
          "name": "",
          "type": "string"
        },
        {
          "internalType": "string",
          "name": "",
          "type": "string"
        },
        {
          "internalType": "string",
          "name": "",
          "type": "string"
        },
        {
          "internalType": "uint256",
          "name": "",
          "type": "uint256"
        }
      ],
      "payable": false,
      "stateMutability": "view",
      "type": "function"
    },
    {
      "constant": true,
      "inputs": [
        {
          "internalType": "uint256",
          "name": "caseId",
          "type": "uint256"
        },
        {
          "internalType": "uint256",
          "name": "evidenceId",
          "type": "uint256"
        }
      ],
      "name": "getEvidenceById",
      "outputs": [
        {
          "internalType": "string",
          "name": "",
          "type": "string"
        },
        {
          "internalType": "string",
          "name": "",
          "type": "string"
        },
        {
          "internalType": "string",
          "name": "",
          "type": "string"
        },
        {
          "internalType": "address",
          "name": "",
          "type": "address"
        }
      ],
      "payable": false,
      "stateMutability": "view",
      "type": "function"
    },
    {
      "constant": false,
      "inputs": [
        {
          "internalType": "address payable",
          "name": "user",
          "type": "address"
        }
      ],
      "name": "tipEvidenceOwner",
      "outputs": [],
      "payable": true,
      "stateMutability": "payable",
      "type": "function"
    }
  ],
  "bytecode": "0x608060405260006002553480156200001657600080fd5b506040518060400160405280600781526020017f736563757265580000000000000000000000000000000000000000000000000081525060009080519060200190620000649291906200006b565b506200011a565b828054600181600116156101000203166002900490600052602060002090601f016020900481019282601f10620000ae57805160ff1916838001178555620000df565b82800160010185558215620000df579182015b82811115620000de578251825591602001919060010190620000c1565b5b509050620000ee9190620000f2565b5090565b6200011791905b8082111562000113576000816000905550600101620000f9565b5090565b90565b61167e806200012a6000396000f3fe60806040526004361061007b5760003560e01c8063b903bc501161004e578063b903bc5014610531578063caeb008514610575578063e2c3b3741461073e578063f09790dd146108d15761007b565b806306fdde03146100805780630dc265c8146101105780634ce5162f14610306578063759903f914610331575b600080fd5b34801561008c57600080fd5b50610095610a76565b6040518080602001828103825283818151815260200191508051906020019080838360005b838110156100d55780820151818401526020810190506100ba565b50505050905090810190601f1680156101025780820380516001836020036101000a031916815260200191505b509250505060405180910390f35b34801561011c57600080fd5b506103046004803603606081101561013357600080fd5b810190808035906020019064010000000081111561015057600080fd5b82018360208201111561016257600080fd5b8035906020019184600183028401116401000000008311171561018457600080fd5b91908080601f016020809104026020016040519081016040528093929190818152602001838380828437600081840152601f19601f820116905080830192505050505050509192919290803590602001906401000000008111156101e757600080fd5b8201836020820111156101f957600080fd5b8035906020019184600183028401116401000000008311171561021b57600080fd5b91908080601f016020809104026020016040519081016040528093929190818152602001838380828437600081840152601f19601f8201169050808301925050505050505091929192908035906020019064010000000081111561027e57600080fd5b82018360208201111561029057600080fd5b803590602001918460018302840111640100000000831117156102b257600080fd5b91908080601f016020809104026020016040519081016040528093929190818152602001838380828437600081840152601f19601f820116905080830192505050505050509192919290505050610b14565b005b34801561031257600080fd5b5061031b610bde565b6040518082815260200191505060405180910390f35b34801561033d57600080fd5b5061052f6004803603608081101561035457600080fd5b81019080803590602001909291908035906020019064010000000081111561037b57600080fd5b82018360208201111561038d57600080fd5b803590602001918460018302840111640100000000831117156103af57600080fd5b91908080601f016020809104026020016040519081016040528093929190818152602001838380828437600081840152601f19601f8201169050808301925050505050505091929192908035906020019064010000000081111561041257600080fd5b82018360208201111561042457600080fd5b8035906020019184600183028401116401000000008311171561044657600080fd5b91908080601f016020809104026020016040519081016040528093929190818152602001838380828437600081840152601f19601f820116905080830192505050505050509192919290803590602001906401000000008111156104a957600080fd5b8201836020820111156104bb57600080fd5b803590602001918460018302840111640100000000831117156104dd57600080fd5b91908080601f016020809104026020016040519081016040528093929190818152602001838380828437600081840152601f19601f820116905080830192505050505050509192919290505050610be4565b005b6105736004803603602081101561054757600080fd5b81019080803573ffffffffffffffffffffffffffffffffffffffff169060200190929190505050610d23565b005b34801561058157600080fd5b506105b86004803603604081101561059857600080fd5b810190808035906020019092919080359060200190929190505050610d6d565b604051808060200180602001806020018573ffffffffffffffffffffffffffffffffffffffff1673ffffffffffffffffffffffffffffffffffffffff168152602001848103845288818151815260200191508051906020019080838360005b83811015610632578082015181840152602081019050610617565b50505050905090810190601f16801561065f5780820380516001836020036101000a031916815260200191505b50848103835287818151815260200191508051906020019080838360005b8381101561069857808201518184015260208101905061067d565b50505050905090810190601f1680156106c55780820380516001836020036101000a031916815260200191505b50848103825286818151815260200191508051906020019080838360005b838110156106fe5780820151818401526020810190506106e3565b50505050905090810190601f16801561072b5780820380516001836020036101000a031916815260200191505b5097505050505050505060405180910390f35b34801561074a57600080fd5b506107776004803603602081101561076157600080fd5b8101908080359060200190929190505050611025565b60405180806020018060200180602001858152602001848103845288818151815260200191508051906020019080838360005b838110156107c55780820151818401526020810190506107aa565b50505050905090810190601f1680156107f25780820380516001836020036101000a031916815260200191505b50848103835287818151815260200191508051906020019080838360005b8381101561082b578082015181840152602081019050610810565b50505050905090810190601f1680156108585780820380516001836020036101000a031916815260200191505b50848103825286818151815260200191508051906020019080838360005b83811015610891578082015181840152602081019050610876565b50505050905090810190601f1680156108be5780820380516001836020036101000a031916815260200191505b5097505050505050505060405180910390f35b3480156108dd57600080fd5b5061090a600480360360208110156108f457600080fd5b81019080803590602001909291905050506112ce565b604051808060200187815260200180602001868152602001806020018515151515815260200184810384528a818151815260200191508051906020019080838360005b8381101561096857808201518184015260208101905061094d565b50505050905090810190601f1680156109955780820380516001836020036101000a031916815260200191505b50848103835288818151815260200191508051906020019080838360005b838110156109ce5780820151818401526020810190506109b3565b50505050905090810190601f1680156109fb5780820380516001836020036101000a031916815260200191505b50848103825286818151815260200191508051906020019080838360005b83811015610a34578082015181840152602081019050610a19565b50505050905090810190601f168015610a615780820380516001836020036101000a031916815260200191505b50995050505050505050505060405180910390f35b60008054600181600116156101000203166002900480601f016020809104026020016040519081016040528092919081815260200182805460018160011615610100020316600290048015610b0c5780601f10610ae157610100808354040283529160200191610b0c565b820191906000526020600020905b815481529060010190602001808311610aef57829003601f168201915b505050505081565b6000835111610b2257600080fd5b6000825111610b3057600080fd5b6002600081548092919060010191905055506000600160006002548152602001908152602001600020905083816000019080519060200190610b739291906114df565b50600254816001018190555082816002019080519060200190610b979291906114df565b506000816004018190555081816005019080519060200190610bba9291906114df565b5060018160060160006101000a81548160ff02191690831515021790555050505050565b60025481565b6000600160008681526020019081526020016000209050610c0361155f565b6040518060a001604052808681526020018581526020013373ffffffffffffffffffffffffffffffffffffffff168152602001428152602001848152509050816004016000815480929190600101919050555080826003016000846004015481526020019081526020016000206000820151816000019080519060200190610c8c9291906115a4565b506020820151816001019080519060200190610ca99291906115a4565b5060408201518160020160006101000a81548173ffffffffffffffffffffffffffffffffffffffff021916908373ffffffffffffffffffffffffffffffffffffffff160217905550606082015181600301556080820151816004019080519060200190610d179291906115a4565b50905050505050505050565b8073ffffffffffffffffffffffffffffffffffffffff166108fc349081150290604051600060405180830381858888f19350505050158015610d69573d6000803e3d6000fd5b5050565b60608060606000610d7c61155f565b6001600088815260200190815260200160002060030160008781526020019081526020016000206040518060a0016040529081600082018054600181600116156101000203166002900480601f016020809104026020016040519081016040528092919081815260200182805460018160011615610100020316600290048015610e475780601f10610e1c57610100808354040283529160200191610e47565b820191906000526020600020905b815481529060010190602001808311610e2a57829003601f168201915b50505050508152602001600182018054600181600116156101000203166002900480601f016020809104026020016040519081016040528092919081815260200182805460018160011615610100020316600290048015610ee95780601f10610ebe57610100808354040283529160200191610ee9565b820191906000526020600020905b815481529060010190602001808311610ecc57829003601f168201915b505050505081526020016002820160009054906101000a900473ffffffffffffffffffffffffffffffffffffffff1673ffffffffffffffffffffffffffffffffffffffff1673ffffffffffffffffffffffffffffffffffffffff16815260200160038201548152602001600482018054600181600116156101000203166002900480601f016020809104026020016040519081016040528092919081815260200182805460018160011615610100020316600290048015610feb5780601f10610fc057610100808354040283529160200191610feb565b820191906000526020600020905b815481529060010190602001808311610fce57829003601f168201915b5050505050815250509050806000015181602001518260800151836040015183935082925081915094509450945094505092959194509250565b606080606060006001600086815260200190815260200160002060060160009054906101000a900460ff166110c2576040517f08c379a00000000000000000000000000000000000000000000000000000000081526004018080602001828103825260148152602001807f4e6f20737563682063617365206578697374732100000000000000000000000081525060200191505060405180910390fd5b60006001600087815260200190815260200160002090508060000181600201826005018360040154838054600181600116156101000203166002900480601f01602080910402602001604051908101604052809291908181526020018280546001816001161561010002031660029004801561117f5780601f106111545761010080835404028352916020019161117f565b820191906000526020600020905b81548152906001019060200180831161116257829003601f168201915b50505050509350828054600181600116156101000203166002900480601f01602080910402602001604051908101604052809291908181526020018280546001816001161561010002031660029004801561121b5780601f106111f05761010080835404028352916020019161121b565b820191906000526020600020905b8154815290600101906020018083116111fe57829003601f168201915b50505050509250818054600181600116156101000203166002900480601f0160208091040260200160405190810160405280929190818152602001828054600181600116156101000203166002900480156112b75780601f1061128c576101008083540402835291602001916112b7565b820191906000526020600020905b81548152906001019060200180831161129a57829003601f168201915b505050505091509450945094509450509193509193565b6001602052806000526040600020600091509050806000018054600181600116156101000203166002900480601f01602080910402602001604051908101604052809291908181526020018280546001816001161561010002031660029004801561137a5780601f1061134f5761010080835404028352916020019161137a565b820191906000526020600020905b81548152906001019060200180831161135d57829003601f168201915b505050505090806001015490806002018054600181600116156101000203166002900480601f01602080910402602001604051908101604052809291908181526020018280546001816001161561010002031660029004801561141e5780601f106113f35761010080835404028352916020019161141e565b820191906000526020600020905b81548152906001019060200180831161140157829003601f168201915b505050505090806004015490806005018054600181600116156101000203166002900480601f0160208091040260200160405190810160405280929190818152602001828054600181600116156101000203166002900480156114c25780601f10611497576101008083540402835291602001916114c2565b820191906000526020600020905b8154815290600101906020018083116114a557829003601f168201915b5050505050908060060160009054906101000a900460ff16905086565b828054600181600116156101000203166002900490600052602060002090601f016020900481019282601f1061152057805160ff191683800117855561154e565b8280016001018555821561154e579182015b8281111561154d578251825591602001919060010190611532565b5b50905061155b9190611624565b5090565b6040518060a001604052806060815260200160608152602001600073ffffffffffffffffffffffffffffffffffffffff16815260200160008152602001606081525090565b828054600181600116156101000203166002900490600052602060002090601f016020900481019282601f106115e557805160ff1916838001178555611613565b82800160010185558215611613579182015b828111156116125782518255916020019190600101906115f7565b5b5090506116209190611624565b5090565b61164691905b8082111561164257600081600090555060010161162a565b5090565b9056fea265627a7a72315820dce3b2d5cbcd42f04e8b996d7cdd376f11ff72fc129048bae009f3a132d581f764736f6c63430005100032",
  "source": "// SPDX-License-Identifier: MIT\npragma solidity >=0.4.22 <0.9.0;\n\ncontract Securex {\n    string public name;\n\n    mapping(uint256 => Case) public cases;\n  \n    uint256 public totalCases = 0;\n\n    struct Evidence {\n        string description;\n        string fileHash;\n        address owner;\n        uint256 timestamp;\n        string createdDateTime;\n    }\n\n    struct Case {\n        string courtId;\n        uint256 caseId;\n        string caseDescription;\n        mapping(uint256 => Evidence) evidences;\n        uint256 totalEvidences;\n        string startDateTime;\n        bool initialised;\n    }\n\n    constructor() public {\n        name = \"secureX\";\n    }\n\n    function registerCase(\n        string memory _courtId,\n        string memory _caseDescription,\n        string memory _startDateTime\n    ) public {\n        require(bytes(_courtId).length > 0);\n        require(bytes(_caseDescription).length > 0);\n        totalCases++;\n        Case storage newCase = cases[totalCases];\n\n        newCase.courtId = _courtId;\n\n        newCase.caseId = totalCases;\n        newCase.caseDescription = _caseDescription;\n        newCase.totalEvidences = 0;\n        newCase.startDateTime = _startDateTime;\n        newCase.initialised = true;\n\n        //emit CaseRegistered();\n    }\n\n    function registerEvidence(\n        uint256 _caseId,\n        string memory _description,\n        string memory _fileHash,\n        string memory _createdDateTime\n    ) public {\n        // require(_id > 0 && _id <= imageCount);\n\n        Case storage contextCase = cases[_caseId];\n        Evidence memory newEvidence = Evidence({\n            description: _description,\n            fileHash: _fileHash,\n            owner: msg.sender,\n            createdDateTime: _createdDateTime,\n            timestamp: block.timestamp\n        });\n\n        contextCase.totalEvidences++;\n        contextCase.evidences[contextCase.totalEvidences] = newEvidence;\n    }\n\n    function getCaseById(uint256 caseId)\n        external\n        view\n        returns (\n            string memory,\n            string memory,\n            string memory,\n            uint256\n        )\n    {\n        require(cases[caseId].initialised, \"No such case exists!\");\n        Case storage reqcase = cases[caseId];\n        return (\n            reqcase.courtId,\n            reqcase.caseDescription,\n            reqcase.startDateTime,\n            reqcase.totalEvidences\n        );\n    }\n\n    function getEvidenceById(uint256 caseId, uint256 evidenceId)\n        external\n        view\n        returns (\n            string memory,\n            string memory,\n            string memory,\n            address\n        )\n    {\n        Evidence memory evd = cases[caseId].evidences[evidenceId];\n        return (evd.description, evd.fileHash, evd.createdDateTime, evd.owner);\n    }\n\n    function tipEvidenceOwner(address payable user) public payable {\n        // Evidence memory evd = cases[caseId].evidences[evidenceId];\n        // address  _user = evd.owner;\n\n        user.transfer(msg.value);\n    }\n}",
  "sourcePath": "/home/hashir/WORK/secureX/src/contracts/Securex.sol",
  "compiler": {
    "name": "solc",
    "version": "0.5.16+commit.9c3226ce.Emscripten.clang"
  },
  "schemaVersion": "3.4.4",
  "updatedAt": "2022-01-29T12:10:17.300Z",
  "networkType": "ethereum",
  "devdoc": {
    "methods": {}
  },
  "userdoc": {
    "methods": {}
  }
}