{
  "contractName": "Securex",
  "abi": [
    {
      "inputs": [],
      "payable": false,
      "stateMutability": "nonpayable",
      "type": "constructor"
    },
    {
      "constant": true,
      "inputs": [
        {
          "internalType": "uint256",
          "name": "",
          "type": "uint256"
        }
      ],
      "name": "cases",
      "outputs": [
        {
          "internalType": "string",
          "name": "courtId",
          "type": "string"
        },
        {
          "internalType": "uint256",
          "name": "caseId",
          "type": "uint256"
        },
        {
          "internalType": "string",
          "name": "caseDescription",
          "type": "string"
        },
        {
          "internalType": "uint256",
          "name": "totalEvidences",
          "type": "uint256"
        },
        {
          "internalType": "string",
          "name": "startDateTime",
          "type": "string"
        },
        {
          "internalType": "bool",
          "name": "initialised",
          "type": "bool"
        }
      ],
      "payable": false,
      "stateMutability": "view",
      "type": "function"
    },
    {
      "constant": true,
      "inputs": [],
      "name": "name",
      "outputs": [
        {
          "internalType": "string",
          "name": "",
          "type": "string"
        }
      ],
      "payable": false,
      "stateMutability": "view",
      "type": "function"
    },
    {
      "constant": true,
      "inputs": [],
      "name": "totalCases",
      "outputs": [
        {
          "internalType": "uint256",
          "name": "",
          "type": "uint256"
        }
      ],
      "payable": false,
      "stateMutability": "view",
      "type": "function"
    },
    {
      "constant": false,
      "inputs": [
        {
          "internalType": "string",
          "name": "_courtId",
          "type": "string"
        },
        {
          "internalType": "string",
          "name": "_caseDescription",
          "type": "string"
        },
        {
          "internalType": "string",
          "name": "_startDateTime",
          "type": "string"
        }
      ],
      "name": "registerCase",
      "outputs": [],
      "payable": false,
      "stateMutability": "nonpayable",
      "type": "function"
    },
    {
      "constant": false,
      "inputs": [
        {
          "internalType": "uint256",
          "name": "_caseId",
          "type": "uint256"
        },
        {
          "internalType": "string",
          "name": "_description",
          "type": "string"
        },
        {
          "internalType": "string",
          "name": "_fileHash",
          "type": "string"
        },
        {
          "internalType": "string",
          "name": "_createdDateTime",
          "type": "string"
        }
      ],
      "name": "registerEvidence",
      "outputs": [],
      "payable": false,
      "stateMutability": "nonpayable",
      "type": "function"
    },
    {
      "constant": true,
      "inputs": [
        {
          "internalType": "uint256",
          "name": "caseId",
          "type": "uint256"
        }
      ],
      "name": "getCaseById",
      "outputs": [
        {
          "internalType": "string",
          "name": "",
          "type": "string"
        },
        {
          "internalType": "string",
          "name": "",
          "type": "string"
        },
        {
          "internalType": "string",
          "name": "",
          "type": "string"
        },
        {
          "internalType": "uint256",
          "name": "",
          "type": "uint256"
        }
      ],
      "payable": false,
      "stateMutability": "view",
      "type": "function"
    },
    {
      "constant": true,
      "inputs": [
        {
          "internalType": "uint256",
          "name": "caseId",
          "type": "uint256"
        },
        {
          "internalType": "uint256",
          "name": "evidenceId",
          "type": "uint256"
        }
      ],
      "name": "getEvidenceById",
      "outputs": [
        {
          "internalType": "string",
          "name": "",
          "type": "string"
        },
        {
          "internalType": "string",
          "name": "",
          "type": "string"
        },
        {
          "internalType": "string",
          "name": "",
          "type": "string"
        }
      ],
      "payable": false,
      "stateMutability": "view",
      "type": "function"
    }
  ],
  "bytecode": "0x608060405260006002553480156200001657600080fd5b506040518060400160405280600781526020017f736563757265580000000000000000000000000000000000000000000000000081525060009080519060200190620000649291906200006b565b506200011a565b828054600181600116156101000203166002900490600052602060002090601f016020900481019282601f10620000ae57805160ff1916838001178555620000df565b82800160010185558215620000df579182015b82811115620000de578251825591602001919060010190620000c1565b5b509050620000ee9190620000f2565b5090565b6200011791905b8082111562000113576000816000905550600101620000f9565b5090565b90565b611559806200012a6000396000f3fe608060405234801561001057600080fd5b506004361061007d5760003560e01c8063759903f91161005b578063759903f91461030c578063caeb0085146104ff578063e2c3b37414610688578063f09790dd1461080e5761007d565b806306fdde03146100825780630dc265c8146101055780634ce5162f146102ee575b600080fd5b61008a6109a6565b6040518080602001828103825283818151815260200191508051906020019080838360005b838110156100ca5780820151818401526020810190506100af565b50505050905090810190601f1680156100f75780820380516001836020036101000a031916815260200191505b509250505060405180910390f35b6102ec6004803603606081101561011b57600080fd5b810190808035906020019064010000000081111561013857600080fd5b82018360208201111561014a57600080fd5b8035906020019184600183028401116401000000008311171561016c57600080fd5b91908080601f016020809104026020016040519081016040528093929190818152602001838380828437600081840152601f19601f820116905080830192505050505050509192919290803590602001906401000000008111156101cf57600080fd5b8201836020820111156101e157600080fd5b8035906020019184600183028401116401000000008311171561020357600080fd5b91908080601f016020809104026020016040519081016040528093929190818152602001838380828437600081840152601f19601f8201169050808301925050505050505091929192908035906020019064010000000081111561026657600080fd5b82018360208201111561027857600080fd5b8035906020019184600183028401116401000000008311171561029a57600080fd5b91908080601f016020809104026020016040519081016040528093929190818152602001838380828437600081840152601f19601f820116905080830192505050505050509192919290505050610a44565b005b6102f6610b0e565b6040518082815260200191505060405180910390f35b6104fd6004803603608081101561032257600080fd5b81019080803590602001909291908035906020019064010000000081111561034957600080fd5b82018360208201111561035b57600080fd5b8035906020019184600183028401116401000000008311171561037d57600080fd5b91908080601f016020809104026020016040519081016040528093929190818152602001838380828437600081840152601f19601f820116905080830192505050505050509192919290803590602001906401000000008111156103e057600080fd5b8201836020820111156103f257600080fd5b8035906020019184600183028401116401000000008311171561041457600080fd5b91908080601f016020809104026020016040519081016040528093929190818152602001838380828437600081840152601f19601f8201169050808301925050505050505091929192908035906020019064010000000081111561047757600080fd5b82018360208201111561048957600080fd5b803590602001918460018302840111640100000000831117156104ab57600080fd5b91908080601f016020809104026020016040519081016040528093929190818152602001838380828437600081840152601f19601f820116905080830192505050505050509192919290505050610b14565b005b6105356004803603604081101561051557600080fd5b810190808035906020019092919080359060200190929190505050610c53565b60405180806020018060200180602001848103845287818151815260200191508051906020019080838360005b8381101561057d578082015181840152602081019050610562565b50505050905090810190601f1680156105aa5780820380516001836020036101000a031916815260200191505b50848103835286818151815260200191508051906020019080838360005b838110156105e35780820151818401526020810190506105c8565b50505050905090810190601f1680156106105780820380516001836020036101000a031916815260200191505b50848103825285818151815260200191508051906020019080838360005b8381101561064957808201518184015260208101905061062e565b50505050905090810190601f1680156106765780820380516001836020036101000a031916815260200191505b50965050505050505060405180910390f35b6106b46004803603602081101561069e57600080fd5b8101908080359060200190929190505050610f00565b60405180806020018060200180602001858152602001848103845288818151815260200191508051906020019080838360005b838110156107025780820151818401526020810190506106e7565b50505050905090810190601f16801561072f5780820380516001836020036101000a031916815260200191505b50848103835287818151815260200191508051906020019080838360005b8381101561076857808201518184015260208101905061074d565b50505050905090810190601f1680156107955780820380516001836020036101000a031916815260200191505b50848103825286818151815260200191508051906020019080838360005b838110156107ce5780820151818401526020810190506107b3565b50505050905090810190601f1680156107fb5780820380516001836020036101000a031916815260200191505b5097505050505050505060405180910390f35b61083a6004803603602081101561082457600080fd5b81019080803590602001909291905050506111a9565b604051808060200187815260200180602001868152602001806020018515151515815260200184810384528a818151815260200191508051906020019080838360005b8381101561089857808201518184015260208101905061087d565b50505050905090810190601f1680156108c55780820380516001836020036101000a031916815260200191505b50848103835288818151815260200191508051906020019080838360005b838110156108fe5780820151818401526020810190506108e3565b50505050905090810190601f16801561092b5780820380516001836020036101000a031916815260200191505b50848103825286818151815260200191508051906020019080838360005b83811015610964578082015181840152602081019050610949565b50505050905090810190601f1680156109915780820380516001836020036101000a031916815260200191505b50995050505050505050505060405180910390f35b60008054600181600116156101000203166002900480601f016020809104026020016040519081016040528092919081815260200182805460018160011615610100020316600290048015610a3c5780601f10610a1157610100808354040283529160200191610a3c565b820191906000526020600020905b815481529060010190602001808311610a1f57829003601f168201915b505050505081565b6000835111610a5257600080fd5b6000825111610a6057600080fd5b6002600081548092919060010191905055506000600160006002548152602001908152602001600020905083816000019080519060200190610aa39291906113ba565b50600254816001018190555082816002019080519060200190610ac79291906113ba565b506000816004018190555081816005019080519060200190610aea9291906113ba565b5060018160060160006101000a81548160ff02191690831515021790555050505050565b60025481565b6000600160008681526020019081526020016000209050610b3361143a565b6040518060a001604052808681526020018581526020013373ffffffffffffffffffffffffffffffffffffffff168152602001428152602001848152509050816004016000815480929190600101919050555080826003016000846004015481526020019081526020016000206000820151816000019080519060200190610bbc92919061147f565b506020820151816001019080519060200190610bd992919061147f565b5060408201518160020160006101000a81548173ffffffffffffffffffffffffffffffffffffffff021916908373ffffffffffffffffffffffffffffffffffffffff160217905550606082015181600301556080820151816004019080519060200190610c4792919061147f565b50905050505050505050565b6060806060610c6061143a565b6001600087815260200190815260200160002060030160008681526020019081526020016000206040518060a0016040529081600082018054600181600116156101000203166002900480601f016020809104026020016040519081016040528092919081815260200182805460018160011615610100020316600290048015610d2b5780601f10610d0057610100808354040283529160200191610d2b565b820191906000526020600020905b815481529060010190602001808311610d0e57829003601f168201915b50505050508152602001600182018054600181600116156101000203166002900480601f016020809104026020016040519081016040528092919081815260200182805460018160011615610100020316600290048015610dcd5780601f10610da257610100808354040283529160200191610dcd565b820191906000526020600020905b815481529060010190602001808311610db057829003601f168201915b505050505081526020016002820160009054906101000a900473ffffffffffffffffffffffffffffffffffffffff1673ffffffffffffffffffffffffffffffffffffffff1673ffffffffffffffffffffffffffffffffffffffff16815260200160038201548152602001600482018054600181600116156101000203166002900480601f016020809104026020016040519081016040528092919081815260200182805460018160011615610100020316600290048015610ecf5780601f10610ea457610100808354040283529160200191610ecf565b820191906000526020600020905b815481529060010190602001808311610eb257829003601f168201915b5050505050815250509050806000015181602001518260800151829250819150809050935093509350509250925092565b606080606060006001600086815260200190815260200160002060060160009054906101000a900460ff16610f9d576040517f08c379a00000000000000000000000000000000000000000000000000000000081526004018080602001828103825260148152602001807f4e6f20737563682063617365206578697374732100000000000000000000000081525060200191505060405180910390fd5b60006001600087815260200190815260200160002090508060000181600201826005018360040154838054600181600116156101000203166002900480601f01602080910402602001604051908101604052809291908181526020018280546001816001161561010002031660029004801561105a5780601f1061102f5761010080835404028352916020019161105a565b820191906000526020600020905b81548152906001019060200180831161103d57829003601f168201915b50505050509350828054600181600116156101000203166002900480601f0160208091040260200160405190810160405280929190818152602001828054600181600116156101000203166002900480156110f65780601f106110cb576101008083540402835291602001916110f6565b820191906000526020600020905b8154815290600101906020018083116110d957829003601f168201915b50505050509250818054600181600116156101000203166002900480601f0160208091040260200160405190810160405280929190818152602001828054600181600116156101000203166002900480156111925780601f1061116757610100808354040283529160200191611192565b820191906000526020600020905b81548152906001019060200180831161117557829003601f168201915b505050505091509450945094509450509193509193565b6001602052806000526040600020600091509050806000018054600181600116156101000203166002900480601f0160208091040260200160405190810160405280929190818152602001828054600181600116156101000203166002900480156112555780601f1061122a57610100808354040283529160200191611255565b820191906000526020600020905b81548152906001019060200180831161123857829003601f168201915b505050505090806001015490806002018054600181600116156101000203166002900480601f0160208091040260200160405190810160405280929190818152602001828054600181600116156101000203166002900480156112f95780601f106112ce576101008083540402835291602001916112f9565b820191906000526020600020905b8154815290600101906020018083116112dc57829003601f168201915b505050505090806004015490806005018054600181600116156101000203166002900480601f01602080910402602001604051908101604052809291908181526020018280546001816001161561010002031660029004801561139d5780601f106113725761010080835404028352916020019161139d565b820191906000526020600020905b81548152906001019060200180831161138057829003601f168201915b5050505050908060060160009054906101000a900460ff16905086565b828054600181600116156101000203166002900490600052602060002090601f016020900481019282601f106113fb57805160ff1916838001178555611429565b82800160010185558215611429579182015b8281111561142857825182559160200191906001019061140d565b5b50905061143691906114ff565b5090565b6040518060a001604052806060815260200160608152602001600073ffffffffffffffffffffffffffffffffffffffff16815260200160008152602001606081525090565b828054600181600116156101000203166002900490600052602060002090601f016020900481019282601f106114c057805160ff19168380011785556114ee565b828001600101855582156114ee579182015b828111156114ed5782518255916020019190600101906114d2565b5b5090506114fb91906114ff565b5090565b61152191905b8082111561151d576000816000905550600101611505565b5090565b9056fea265627a7a72315820c17ad99e866326718cbbf26b7a81f527dbad41b834c3511d624f853c8b2cd3ac64736f6c63430005100032",
  "source": "// SPDX-License-Identifier: MIT\npragma solidity >=0.4.22 <0.9.0;\n\ncontract Securex {\n    string public name;\n\n    mapping(uint256 => Case) public cases;\n  \n    uint256 public totalCases = 0;\n\n    struct Evidence {\n        string description;\n        string fileHash;\n        address owner;\n        uint256 timestamp;\n        string createdDateTime;\n    }\n\n    struct Case {\n        string courtId;\n        uint256 caseId;\n        string caseDescription;\n        mapping(uint256 => Evidence) evidences;\n        uint256 totalEvidences;\n        string startDateTime;\n        bool initialised;\n    }\n\n    constructor() public {\n        name = \"secureX\";\n    }\n\n    function registerCase(\n        string memory _courtId,\n        string memory _caseDescription,\n        string memory _startDateTime\n    ) public {\n        require(bytes(_courtId).length > 0);\n        require(bytes(_caseDescription).length > 0);\n        totalCases++;\n        Case storage newCase = cases[totalCases];\n\n        newCase.courtId = _courtId;\n\n        newCase.caseId = totalCases;\n        newCase.caseDescription = _caseDescription;\n        newCase.totalEvidences = 0;\n        newCase.startDateTime = _startDateTime;\n        newCase.initialised = true;\n\n        //emit CaseRegistered();\n    }\n\n    function registerEvidence(\n        uint256 _caseId,\n        string memory _description,\n        string memory _fileHash,\n        string memory _createdDateTime\n    ) public {\n        // require(_id > 0 && _id <= imageCount);\n\n        Case storage contextCase = cases[_caseId];\n        Evidence memory newEvidence = Evidence({\n            description: _description,\n            fileHash: _fileHash,\n            owner: msg.sender,\n            createdDateTime: _createdDateTime,\n            timestamp: block.timestamp\n        });\n\n        contextCase.totalEvidences++;\n        contextCase.evidences[contextCase.totalEvidences] = newEvidence;\n    }\n\n       function getCaseById(uint256 caseId)\n        external\n        view\n        returns (\n            string memory,\n            string memory,\n            string memory,\n            uint256\n        )\n    {\n        require(cases[caseId].initialised, \"No such case exists!\");\n        Case storage reqcase = cases[caseId];\n        return (\n            reqcase.courtId,\n            reqcase.caseDescription,\n            reqcase.startDateTime,\n            reqcase.totalEvidences\n        );\n    }\n\n \n\n    function getEvidenceById(uint256 caseId, uint256 evidenceId)\n        external\n        view\n        returns (\n            string memory,\n            string memory,\n            string memory\n        )\n    {\n        Evidence memory evd = cases[caseId].evidences[evidenceId];\n        return (evd.description, evd.fileHash, evd.createdDateTime);\n    }\n}",
  "sourcePath": "/home/hashir/WORK/secureX/src/contracts/Securex.sol",
  "compiler": {
    "name": "solc",
    "version": "0.5.16+commit.9c3226ce.Emscripten.clang"
  },
  "schemaVersion": "3.4.4",
  "updatedAt": "2022-01-29T10:49:52.854Z",
  "networkType": "ethereum",
  "devdoc": {
    "methods": {}
  },
  "userdoc": {
    "methods": {}
  }
}